{
  "_format": "hh-sol-artifact-1",
  "contractName": "Gorillaz",
  "sourceName": "contracts/Gorillaz.sol",
  "abi": [
    {
      "inputs": [
        {
          "internalType": "string",
          "name": "_name",
          "type": "string"
        },
        {
          "internalType": "string",
          "name": "_symbol",
          "type": "string"
        },
        {
          "internalType": "string",
          "name": "_initBaseURI",
          "type": "string"
        }
      ],
      "stateMutability": "nonpayable",
      "type": "constructor"
    },
    {
      "anonymous": false,
      "inputs": [
        {
          "indexed": true,
          "internalType": "address",
          "name": "owner",
          "type": "address"
        },
        {
          "indexed": true,
          "internalType": "address",
          "name": "approved",
          "type": "address"
        },
        {
          "indexed": true,
          "internalType": "uint256",
          "name": "tokenId",
          "type": "uint256"
        }
      ],
      "name": "Approval",
      "type": "event"
    },
    {
      "anonymous": false,
      "inputs": [
        {
          "indexed": true,
          "internalType": "address",
          "name": "owner",
          "type": "address"
        },
        {
          "indexed": true,
          "internalType": "address",
          "name": "operator",
          "type": "address"
        },
        {
          "indexed": false,
          "internalType": "bool",
          "name": "approved",
          "type": "bool"
        }
      ],
      "name": "ApprovalForAll",
      "type": "event"
    },
    {
      "anonymous": false,
      "inputs": [
        {
          "indexed": true,
          "internalType": "address",
          "name": "previousOwner",
          "type": "address"
        },
        {
          "indexed": true,
          "internalType": "address",
          "name": "newOwner",
          "type": "address"
        }
      ],
      "name": "OwnershipTransferred",
      "type": "event"
    },
    {
      "anonymous": false,
      "inputs": [
        {
          "indexed": true,
          "internalType": "address",
          "name": "from",
          "type": "address"
        },
        {
          "indexed": true,
          "internalType": "address",
          "name": "to",
          "type": "address"
        },
        {
          "indexed": true,
          "internalType": "uint256",
          "name": "tokenId",
          "type": "uint256"
        }
      ],
      "name": "Transfer",
      "type": "event"
    },
    {
      "inputs": [
        {
          "internalType": "address",
          "name": "to",
          "type": "address"
        },
        {
          "internalType": "uint256",
          "name": "tokenId",
          "type": "uint256"
        }
      ],
      "name": "approve",
      "outputs": [],
      "stateMutability": "nonpayable",
      "type": "function"
    },
    {
      "inputs": [
        {
          "internalType": "address",
          "name": "owner",
          "type": "address"
        }
      ],
      "name": "balanceOf",
      "outputs": [
        {
          "internalType": "uint256",
          "name": "",
          "type": "uint256"
        }
      ],
      "stateMutability": "view",
      "type": "function"
    },
    {
      "inputs": [],
      "name": "baseExtension",
      "outputs": [
        {
          "internalType": "string",
          "name": "",
          "type": "string"
        }
      ],
      "stateMutability": "view",
      "type": "function"
    },
    {
      "inputs": [],
      "name": "baseURI",
      "outputs": [
        {
          "internalType": "string",
          "name": "",
          "type": "string"
        }
      ],
      "stateMutability": "view",
      "type": "function"
    },
    {
      "inputs": [],
      "name": "cost",
      "outputs": [
        {
          "internalType": "uint256",
          "name": "",
          "type": "uint256"
        }
      ],
      "stateMutability": "view",
      "type": "function"
    },
    {
      "inputs": [
        {
          "internalType": "uint256",
          "name": "tokenId",
          "type": "uint256"
        }
      ],
      "name": "getApproved",
      "outputs": [
        {
          "internalType": "address",
          "name": "",
          "type": "address"
        }
      ],
      "stateMutability": "view",
      "type": "function"
    },
    {
      "inputs": [
        {
          "internalType": "address",
          "name": "owner",
          "type": "address"
        },
        {
          "internalType": "address",
          "name": "operator",
          "type": "address"
        }
      ],
      "name": "isApprovedForAll",
      "outputs": [
        {
          "internalType": "bool",
          "name": "",
          "type": "bool"
        }
      ],
      "stateMutability": "view",
      "type": "function"
    },
    {
      "inputs": [],
      "name": "maxMintAmount",
      "outputs": [
        {
          "internalType": "uint256",
          "name": "",
          "type": "uint256"
        }
      ],
      "stateMutability": "view",
      "type": "function"
    },
    {
      "inputs": [],
      "name": "maxSupply",
      "outputs": [
        {
          "internalType": "uint256",
          "name": "",
          "type": "uint256"
        }
      ],
      "stateMutability": "view",
      "type": "function"
    },
    {
      "inputs": [
        {
          "internalType": "address",
          "name": "_to",
          "type": "address"
        },
        {
          "internalType": "uint256",
          "name": "_mintAmount",
          "type": "uint256"
        }
      ],
      "name": "mint",
      "outputs": [],
      "stateMutability": "payable",
      "type": "function"
    },
    {
      "inputs": [],
      "name": "name",
      "outputs": [
        {
          "internalType": "string",
          "name": "",
          "type": "string"
        }
      ],
      "stateMutability": "view",
      "type": "function"
    },
    {
      "inputs": [],
      "name": "owner",
      "outputs": [
        {
          "internalType": "address",
          "name": "",
          "type": "address"
        }
      ],
      "stateMutability": "view",
      "type": "function"
    },
    {
      "inputs": [
        {
          "internalType": "uint256",
          "name": "tokenId",
          "type": "uint256"
        }
      ],
      "name": "ownerOf",
      "outputs": [
        {
          "internalType": "address",
          "name": "",
          "type": "address"
        }
      ],
      "stateMutability": "view",
      "type": "function"
    },
    {
      "inputs": [
        {
          "internalType": "bool",
          "name": "_state",
          "type": "bool"
        }
      ],
      "name": "pause",
      "outputs": [],
      "stateMutability": "nonpayable",
      "type": "function"
    },
    {
      "inputs": [],
      "name": "paused",
      "outputs": [
        {
          "internalType": "bool",
          "name": "",
          "type": "bool"
        }
      ],
      "stateMutability": "view",
      "type": "function"
    },
    {
      "inputs": [
        {
          "internalType": "address",
          "name": "_user",
          "type": "address"
        }
      ],
      "name": "removeWhitelistUser",
      "outputs": [],
      "stateMutability": "nonpayable",
      "type": "function"
    },
    {
      "inputs": [],
      "name": "renounceOwnership",
      "outputs": [],
      "stateMutability": "nonpayable",
      "type": "function"
    },
    {
      "inputs": [
        {
          "internalType": "address",
          "name": "from",
          "type": "address"
        },
        {
          "internalType": "address",
          "name": "to",
          "type": "address"
        },
        {
          "internalType": "uint256",
          "name": "tokenId",
          "type": "uint256"
        }
      ],
      "name": "safeTransferFrom",
      "outputs": [],
      "stateMutability": "nonpayable",
      "type": "function"
    },
    {
      "inputs": [
        {
          "internalType": "address",
          "name": "from",
          "type": "address"
        },
        {
          "internalType": "address",
          "name": "to",
          "type": "address"
        },
        {
          "internalType": "uint256",
          "name": "tokenId",
          "type": "uint256"
        },
        {
          "internalType": "bytes",
          "name": "data",
          "type": "bytes"
        }
      ],
      "name": "safeTransferFrom",
      "outputs": [],
      "stateMutability": "nonpayable",
      "type": "function"
    },
    {
      "inputs": [
        {
          "internalType": "address",
          "name": "operator",
          "type": "address"
        },
        {
          "internalType": "bool",
          "name": "approved",
          "type": "bool"
        }
      ],
      "name": "setApprovalForAll",
      "outputs": [],
      "stateMutability": "nonpayable",
      "type": "function"
    },
    {
      "inputs": [
        {
          "internalType": "string",
          "name": "_newBaseExtension",
          "type": "string"
        }
      ],
      "name": "setBaseExtension",
      "outputs": [],
      "stateMutability": "nonpayable",
      "type": "function"
    },
    {
      "inputs": [
        {
          "internalType": "string",
          "name": "_newBaseURI",
          "type": "string"
        }
      ],
      "name": "setBaseURI",
      "outputs": [],
      "stateMutability": "nonpayable",
      "type": "function"
    },
    {
      "inputs": [
        {
          "internalType": "uint256",
          "name": "_newCost",
          "type": "uint256"
        }
      ],
      "name": "setCost",
      "outputs": [],
      "stateMutability": "nonpayable",
      "type": "function"
    },
    {
      "inputs": [
        {
          "internalType": "uint256",
          "name": "_newmaxMintAmount",
          "type": "uint256"
        }
      ],
      "name": "setmaxMintAmount",
      "outputs": [],
      "stateMutability": "nonpayable",
      "type": "function"
    },
    {
      "inputs": [
        {
          "internalType": "bytes4",
          "name": "interfaceId",
          "type": "bytes4"
        }
      ],
      "name": "supportsInterface",
      "outputs": [
        {
          "internalType": "bool",
          "name": "",
          "type": "bool"
        }
      ],
      "stateMutability": "view",
      "type": "function"
    },
    {
      "inputs": [],
      "name": "symbol",
      "outputs": [
        {
          "internalType": "string",
          "name": "",
          "type": "string"
        }
      ],
      "stateMutability": "view",
      "type": "function"
    },
    {
      "inputs": [
        {
          "internalType": "uint256",
          "name": "index",
          "type": "uint256"
        }
      ],
      "name": "tokenByIndex",
      "outputs": [
        {
          "internalType": "uint256",
          "name": "",
          "type": "uint256"
        }
      ],
      "stateMutability": "view",
      "type": "function"
    },
    {
      "inputs": [
        {
          "internalType": "address",
          "name": "owner",
          "type": "address"
        },
        {
          "internalType": "uint256",
          "name": "index",
          "type": "uint256"
        }
      ],
      "name": "tokenOfOwnerByIndex",
      "outputs": [
        {
          "internalType": "uint256",
          "name": "",
          "type": "uint256"
        }
      ],
      "stateMutability": "view",
      "type": "function"
    },
    {
      "inputs": [
        {
          "internalType": "uint256",
          "name": "tokenId",
          "type": "uint256"
        }
      ],
      "name": "tokenURI",
      "outputs": [
        {
          "internalType": "string",
          "name": "",
          "type": "string"
        }
      ],
      "stateMutability": "view",
      "type": "function"
    },
    {
      "inputs": [],
      "name": "totalSupply",
      "outputs": [
        {
          "internalType": "uint256",
          "name": "",
          "type": "uint256"
        }
      ],
      "stateMutability": "view",
      "type": "function"
    },
    {
      "inputs": [
        {
          "internalType": "address",
          "name": "from",
          "type": "address"
        },
        {
          "internalType": "address",
          "name": "to",
          "type": "address"
        },
        {
          "internalType": "uint256",
          "name": "tokenId",
          "type": "uint256"
        }
      ],
      "name": "transferFrom",
      "outputs": [],
      "stateMutability": "nonpayable",
      "type": "function"
    },
    {
      "inputs": [
        {
          "internalType": "address",
          "name": "newOwner",
          "type": "address"
        }
      ],
      "name": "transferOwnership",
      "outputs": [],
      "stateMutability": "nonpayable",
      "type": "function"
    },
    {
      "inputs": [
        {
          "internalType": "address",
          "name": "_owner",
          "type": "address"
        }
      ],
      "name": "walletOfOwner",
      "outputs": [
        {
          "internalType": "uint256[]",
          "name": "",
          "type": "uint256[]"
        }
      ],
      "stateMutability": "view",
      "type": "function"
    },
    {
      "inputs": [
        {
          "internalType": "address",
          "name": "_user",
          "type": "address"
        }
      ],
      "name": "whitelistUser",
      "outputs": [],
      "stateMutability": "nonpayable",
      "type": "function"
    },
    {
      "inputs": [
        {
          "internalType": "address",
          "name": "",
          "type": "address"
        }
      ],
      "name": "whitelisted",
      "outputs": [
        {
          "internalType": "bool",
          "name": "",
          "type": "bool"
        }
      ],
      "stateMutability": "view",
      "type": "function"
    },
    {
      "inputs": [],
      "name": "withdraw",
      "outputs": [],
      "stateMutability": "payable",
      "type": "function"
    }
  ],
  "bytecode": "0x60806040526040518060400160405280600581526020017f2e6a736f6e000000000000000000000000000000000000000000000000000000815250600c90805190602001906200005192919062000e7a565b50668e1bc9bf040000600d556006600e556002600f556000601060006101000a81548160ff0219169083151502179055503480156200008f57600080fd5b506040516200565d3803806200565d8339818101604052810190620000b59190620010c7565b82828160009080519060200190620000cf92919062000e7a565b508060019080519060200190620000e892919062000e7a565b5050506200010b620000ff6200013860201b60201c565b6200014060201b60201c565b6200011c816200020660201b60201c565b6200012f3360016200023260201b60201c565b505050620017f0565b600033905090565b6000600a60009054906101000a900473ffffffffffffffffffffffffffffffffffffffff16905081600a60006101000a81548173ffffffffffffffffffffffffffffffffffffffff021916908373ffffffffffffffffffffffffffffffffffffffff1602179055508173ffffffffffffffffffffffffffffffffffffffff168173ffffffffffffffffffffffffffffffffffffffff167f8be0079c531659141344cd1fd0a4f28419497f9722a3daafe3b4186f6b6457e060405160405180910390a35050565b62000216620003a160201b60201c565b80600b90805190602001906200022e92919062000e7a565b5050565b6000620002446200043260201b60201c565b9050601060009054906101000a900460ff16156200026157600080fd5b600082116200026f57600080fd5b600f548211156200027f57600080fd5b600e548282620002909190620011b9565b11156200029c57600080fd5b620002ac6200043f60201b60201c565b73ffffffffffffffffffffffffffffffffffffffff163373ffffffffffffffffffffffffffffffffffffffff1614620003575760011515601160003373ffffffffffffffffffffffffffffffffffffffff1673ffffffffffffffffffffffffffffffffffffffff16815260200190815260200160002060009054906101000a900460ff16151514620003565781600d5462000348919062001216565b3410156200035557600080fd5b5b5b6000600190505b8281116200039b5762000385848284620003799190620011b9565b6200046960201b60201c565b8080620003929062001277565b9150506200035e565b50505050565b620003b16200013860201b60201c565b73ffffffffffffffffffffffffffffffffffffffff16620003d76200043f60201b60201c565b73ffffffffffffffffffffffffffffffffffffffff161462000430576040517f08c379a0000000000000000000000000000000000000000000000000000000008152600401620004279062001326565b60405180910390fd5b565b6000600880549050905090565b6000600a60009054906101000a900473ffffffffffffffffffffffffffffffffffffffff16905090565b6200048b8282604051806020016040528060008152506200048f60201b60201c565b5050565b620004a18383620004fd60201b60201c565b620004b66000848484620006f760201b60201c565b620004f8576040517f08c379a0000000000000000000000000000000000000000000000000000000008152600401620004ef90620013be565b60405180910390fd5b505050565b600073ffffffffffffffffffffffffffffffffffffffff168273ffffffffffffffffffffffffffffffffffffffff16141562000570576040517f08c379a0000000000000000000000000000000000000000000000000000000008152600401620005679062001430565b60405180910390fd5b6200058181620008b160201b60201c565b15620005c4576040517f08c379a0000000000000000000000000000000000000000000000000000000008152600401620005bb90620014a2565b60405180910390fd5b620005d8600083836200091d60201b60201c565b6001600360008473ffffffffffffffffffffffffffffffffffffffff1673ffffffffffffffffffffffffffffffffffffffff16815260200190815260200160002060008282546200062a9190620011b9565b92505081905550816002600083815260200190815260200160002060006101000a81548173ffffffffffffffffffffffffffffffffffffffff021916908373ffffffffffffffffffffffffffffffffffffffff160217905550808273ffffffffffffffffffffffffffffffffffffffff16600073ffffffffffffffffffffffffffffffffffffffff167fddf252ad1be2c89b69c2b068fc378daa952ba7f163c4a11628f55a4df523b3ef60405160405180910390a4620006f36000838362000a6460201b60201c565b5050565b6000620007258473ffffffffffffffffffffffffffffffffffffffff1662000a6960201b620015e71760201c565b15620008a4578373ffffffffffffffffffffffffffffffffffffffff1663150b7a02620007576200013860201b60201c565b8786866040518563ffffffff1660e01b81526004016200077b949392919062001577565b602060405180830381600087803b1580156200079657600080fd5b505af1925050508015620007ca57506040513d601f19601f82011682018060405250810190620007c7919062001628565b60015b62000853573d8060008114620007fd576040519150601f19603f3d011682016040523d82523d6000602084013e62000802565b606091505b506000815114156200084b576040517f08c379a00000000000000000000000000000000000000000000000000000000081526004016200084290620013be565b60405180910390fd5b805181602001fd5b63150b7a0260e01b7bffffffffffffffffffffffffffffffffffffffffffffffffffffffff1916817bffffffffffffffffffffffffffffffffffffffffffffffffffffffff191614915050620008a9565b600190505b949350505050565b60008073ffffffffffffffffffffffffffffffffffffffff166002600084815260200190815260200160002060009054906101000a900473ffffffffffffffffffffffffffffffffffffffff1673ffffffffffffffffffffffffffffffffffffffff1614159050919050565b6200093583838362000a8c60201b6200160a1760201c565b600073ffffffffffffffffffffffffffffffffffffffff168373ffffffffffffffffffffffffffffffffffffffff16141562000982576200097c8162000a9160201b60201c565b620009ca565b8173ffffffffffffffffffffffffffffffffffffffff168373ffffffffffffffffffffffffffffffffffffffff1614620009c957620009c8838262000ada60201b60201c565b5b5b600073ffffffffffffffffffffffffffffffffffffffff168273ffffffffffffffffffffffffffffffffffffffff16141562000a175762000a118162000c5760201b60201c565b62000a5f565b8273ffffffffffffffffffffffffffffffffffffffff168273ffffffffffffffffffffffffffffffffffffffff161462000a5e5762000a5d828262000d3360201b60201c565b5b5b505050565b505050565b6000808273ffffffffffffffffffffffffffffffffffffffff163b119050919050565b505050565b6008805490506009600083815260200190815260200160002081905550600881908060018154018082558091505060019003906000526020600020016000909190919091505550565b6000600162000af48462000dbf60201b6200113d1760201c565b62000b0091906200165a565b905060006007600084815260200190815260200160002054905081811462000be6576000600660008673ffffffffffffffffffffffffffffffffffffffff1673ffffffffffffffffffffffffffffffffffffffff168152602001908152602001600020600084815260200190815260200160002054905080600660008773ffffffffffffffffffffffffffffffffffffffff1673ffffffffffffffffffffffffffffffffffffffff168152602001908152602001600020600084815260200190815260200160002081905550816007600083815260200190815260200160002081905550505b6007600084815260200190815260200160002060009055600660008573ffffffffffffffffffffffffffffffffffffffff1673ffffffffffffffffffffffffffffffffffffffff16815260200190815260200160002060008381526020019081526020016000206000905550505050565b6000600160088054905062000c6d91906200165a565b905060006009600084815260200190815260200160002054905060006008838154811062000ca05762000c9f62001695565b5b90600052602060002001549050806008838154811062000cc55762000cc462001695565b5b90600052602060002001819055508160096000838152602001908152602001600020819055506009600085815260200190815260200160002060009055600880548062000d175762000d16620016c4565b5b6001900381819060005260206000200160009055905550505050565b600062000d4b8362000dbf60201b6200113d1760201c565b905081600660008573ffffffffffffffffffffffffffffffffffffffff1673ffffffffffffffffffffffffffffffffffffffff168152602001908152602001600020600083815260200190815260200160002081905550806007600084815260200190815260200160002081905550505050565b60008073ffffffffffffffffffffffffffffffffffffffff168273ffffffffffffffffffffffffffffffffffffffff16141562000e33576040517f08c379a000000000000000000000000000000000000000000000000000000000815260040162000e2a9062001769565b60405180910390fd5b600360008373ffffffffffffffffffffffffffffffffffffffff1673ffffffffffffffffffffffffffffffffffffffff168152602001908152602001600020549050919050565b82805462000e8890620017ba565b90600052602060002090601f01602090048101928262000eac576000855562000ef8565b82601f1062000ec757805160ff191683800117855562000ef8565b8280016001018555821562000ef8579182015b8281111562000ef757825182559160200191906001019062000eda565b5b50905062000f07919062000f0b565b5090565b5b8082111562000f2657600081600090555060010162000f0c565b5090565b6000604051905090565b600080fd5b600080fd5b600080fd5b600080fd5b6000601f19601f8301169050919050565b7f4e487b7100000000000000000000000000000000000000000000000000000000600052604160045260246000fd5b62000f938262000f48565b810181811067ffffffffffffffff8211171562000fb55762000fb462000f59565b5b80604052505050565b600062000fca62000f2a565b905062000fd8828262000f88565b919050565b600067ffffffffffffffff82111562000ffb5762000ffa62000f59565b5b620010068262000f48565b9050602081019050919050565b60005b838110156200103357808201518184015260208101905062001016565b8381111562001043576000848401525b50505050565b6000620010606200105a8462000fdd565b62000fbe565b9050828152602081018484840111156200107f576200107e62000f43565b5b6200108c84828562001013565b509392505050565b600082601f830112620010ac57620010ab62000f3e565b5b8151620010be84826020860162001049565b91505092915050565b600080600060608486031215620010e357620010e262000f34565b5b600084015167ffffffffffffffff81111562001104576200110362000f39565b5b620011128682870162001094565b935050602084015167ffffffffffffffff81111562001136576200113562000f39565b5b620011448682870162001094565b925050604084015167ffffffffffffffff81111562001168576200116762000f39565b5b620011768682870162001094565b9150509250925092565b6000819050919050565b7f4e487b7100000000000000000000000000000000000000000000000000000000600052601160045260246000fd5b6000620011c68262001180565b9150620011d38362001180565b9250827fffffffffffffffffffffffffffffffffffffffffffffffffffffffffffffffff038211156200120b576200120a6200118a565b5b828201905092915050565b6000620012238262001180565b9150620012308362001180565b9250817fffffffffffffffffffffffffffffffffffffffffffffffffffffffffffffffff04831182151516156200126c576200126b6200118a565b5b828202905092915050565b6000620012848262001180565b91507fffffffffffffffffffffffffffffffffffffffffffffffffffffffffffffffff821415620012ba57620012b96200118a565b5b600182019050919050565b600082825260208201905092915050565b7f4f776e61626c653a2063616c6c6572206973206e6f7420746865206f776e6572600082015250565b60006200130e602083620012c5565b91506200131b82620012d6565b602082019050919050565b600060208201905081810360008301526200134181620012ff565b9050919050565b7f4552433732313a207472616e7366657220746f206e6f6e20455243373231526560008201527f63656976657220696d706c656d656e7465720000000000000000000000000000602082015250565b6000620013a6603283620012c5565b9150620013b38262001348565b604082019050919050565b60006020820190508181036000830152620013d98162001397565b9050919050565b7f4552433732313a206d696e7420746f20746865207a65726f2061646472657373600082015250565b600062001418602083620012c5565b91506200142582620013e0565b602082019050919050565b600060208201905081810360008301526200144b8162001409565b9050919050565b7f4552433732313a20746f6b656e20616c7265616479206d696e74656400000000600082015250565b60006200148a601c83620012c5565b9150620014978262001452565b602082019050919050565b60006020820190508181036000830152620014bd816200147b565b9050919050565b600073ffffffffffffffffffffffffffffffffffffffff82169050919050565b6000620014f182620014c4565b9050919050565b6200150381620014e4565b82525050565b620015148162001180565b82525050565b600081519050919050565b600082825260208201905092915050565b600062001543826200151a565b6200154f818562001525565b93506200156181856020860162001013565b6200156c8162000f48565b840191505092915050565b60006080820190506200158e6000830187620014f8565b6200159d6020830186620014f8565b620015ac604083018562001509565b8181036060830152620015c0818462001536565b905095945050505050565b60007fffffffff0000000000000000000000000000000000000000000000000000000082169050919050565b6200160281620015cb565b81146200160e57600080fd5b50565b6000815190506200162281620015f7565b92915050565b60006020828403121562001641576200164062000f34565b5b6000620016518482850162001611565b91505092915050565b6000620016678262001180565b9150620016748362001180565b9250828210156200168a57620016896200118a565b5b828203905092915050565b7f4e487b7100000000000000000000000000000000000000000000000000000000600052603260045260246000fd5b7f4e487b7100000000000000000000000000000000000000000000000000000000600052603160045260246000fd5b7f4552433732313a2061646472657373207a65726f206973206e6f74206120766160008201527f6c6964206f776e65720000000000000000000000000000000000000000000000602082015250565b600062001751602983620012c5565b91506200175e82620016f3565b604082019050919050565b60006020820190508181036000830152620017848162001742565b9050919050565b7f4e487b7100000000000000000000000000000000000000000000000000000000600052602260045260246000fd5b60006002820490506001821680620017d357607f821691505b60208210811415620017ea57620017e96200178b565b5b50919050565b613e5d80620018006000396000f3fe60806040526004361061020f5760003560e01c806355f804b311610118578063a22cb465116100a0578063d5abeb011161006f578063d5abeb011461077f578063d936547e146107aa578063da3ef23f146107e7578063e985e9c514610810578063f2fde38b1461084d5761020f565b8063a22cb465146106c5578063b88d4fde146106ee578063c668286214610717578063c87b56dd146107425761020f565b806370a08231116100e757806370a08231146105f2578063715018a61461062f5780637f00c7a6146106465780638da5cb5b1461066f57806395d89b411461069a5761020f565b806355f804b3146105365780635c975abb1461055f5780636352211e1461058a5780636c0360eb146105c75761020f565b80632f745c591161019b57806342842e0e1161016a57806342842e0e14610441578063438b63001461046a57806344a0d68a146104a75780634a4c560d146104d05780634f6ccce7146104f95761020f565b80632f745c59146103b557806330cc7ae0146103f25780633ccfd60b1461041b57806340c10f19146104255761020f565b8063095ea7b3116101e2578063095ea7b3146102e257806313faede61461030b57806318160ddd14610336578063239c70ae1461036157806323b872dd1461038c5761020f565b806301ffc9a71461021457806302329a291461025157806306fdde031461027a578063081812fc146102a5575b600080fd5b34801561022057600080fd5b5061023b600480360381019061023691906129e7565b610876565b6040516102489190612a2f565b60405180910390f35b34801561025d57600080fd5b5061027860048036038101906102739190612a76565b6108f0565b005b34801561028657600080fd5b5061028f610915565b60405161029c9190612b3c565b60405180910390f35b3480156102b157600080fd5b506102cc60048036038101906102c79190612b94565b6109a7565b6040516102d99190612c02565b60405180910390f35b3480156102ee57600080fd5b5061030960048036038101906103049190612c49565b6109ed565b005b34801561031757600080fd5b50610320610b05565b60405161032d9190612c98565b60405180910390f35b34801561034257600080fd5b5061034b610b0b565b6040516103589190612c98565b60405180910390f35b34801561036d57600080fd5b50610376610b18565b6040516103839190612c98565b60405180910390f35b34801561039857600080fd5b506103b360048036038101906103ae9190612cb3565b610b1e565b005b3480156103c157600080fd5b506103dc60048036038101906103d79190612c49565b610b7e565b6040516103e99190612c98565b60405180910390f35b3480156103fe57600080fd5b5061041960048036038101906104149190612d06565b610c23565b005b610423610c86565b005b61043f600480360381019061043a9190612c49565b610cce565b005b34801561044d57600080fd5b5061046860048036038101906104639190612cb3565b610e14565b005b34801561047657600080fd5b50610491600480360381019061048c9190612d06565b610e34565b60405161049e9190612df1565b60405180910390f35b3480156104b357600080fd5b506104ce60048036038101906104c99190612b94565b610ee2565b005b3480156104dc57600080fd5b506104f760048036038101906104f29190612d06565b610ef4565b005b34801561050557600080fd5b50610520600480360381019061051b9190612b94565b610f57565b60405161052d9190612c98565b60405180910390f35b34801561054257600080fd5b5061055d60048036038101906105589190612f48565b610fc8565b005b34801561056b57600080fd5b50610574610fea565b6040516105819190612a2f565b60405180910390f35b34801561059657600080fd5b506105b160048036038101906105ac9190612b94565b610ffd565b6040516105be9190612c02565b60405180910390f35b3480156105d357600080fd5b506105dc6110af565b6040516105e99190612b3c565b60405180910390f35b3480156105fe57600080fd5b5061061960048036038101906106149190612d06565b61113d565b6040516106269190612c98565b60405180910390f35b34801561063b57600080fd5b506106446111f5565b005b34801561065257600080fd5b5061066d60048036038101906106689190612b94565b611209565b005b34801561067b57600080fd5b5061068461121b565b6040516106919190612c02565b60405180910390f35b3480156106a657600080fd5b506106af611245565b6040516106bc9190612b3c565b60405180910390f35b3480156106d157600080fd5b506106ec60048036038101906106e79190612f91565b6112d7565b005b3480156106fa57600080fd5b5061071560048036038101906107109190613072565b6112ed565b005b34801561072357600080fd5b5061072c61134f565b6040516107399190612b3c565b60405180910390f35b34801561074e57600080fd5b5061076960048036038101906107649190612b94565b6113dd565b6040516107769190612b3c565b60405180910390f35b34801561078b57600080fd5b50610794611487565b6040516107a19190612c98565b60405180910390f35b3480156107b657600080fd5b506107d160048036038101906107cc9190612d06565b61148d565b6040516107de9190612a2f565b60405180910390f35b3480156107f357600080fd5b5061080e60048036038101906108099190612f48565b6114ad565b005b34801561081c57600080fd5b50610837600480360381019061083291906130f5565b6114cf565b6040516108449190612a2f565b60405180910390f35b34801561085957600080fd5b50610874600480360381019061086f9190612d06565b611563565b005b60007f780e9d63000000000000000000000000000000000000000000000000000000007bffffffffffffffffffffffffffffffffffffffffffffffffffffffff1916827bffffffffffffffffffffffffffffffffffffffffffffffffffffffff191614806108e957506108e88261160f565b5b9050919050565b6108f86116f1565b80601060006101000a81548160ff02191690831515021790555050565b60606000805461092490613164565b80601f016020809104026020016040519081016040528092919081815260200182805461095090613164565b801561099d5780601f106109725761010080835404028352916020019161099d565b820191906000526020600020905b81548152906001019060200180831161098057829003601f168201915b5050505050905090565b60006109b28261176f565b6004600083815260200190815260200160002060009054906101000a900473ffffffffffffffffffffffffffffffffffffffff169050919050565b60006109f882610ffd565b90508073ffffffffffffffffffffffffffffffffffffffff168373ffffffffffffffffffffffffffffffffffffffff161415610a69576040517f08c379a0000000000000000000000000000000000000000000000000000000008152600401610a6090613208565b60405180910390fd5b8073ffffffffffffffffffffffffffffffffffffffff16610a886117ba565b73ffffffffffffffffffffffffffffffffffffffff161480610ab75750610ab681610ab16117ba565b6114cf565b5b610af6576040517f08c379a0000000000000000000000000000000000000000000000000000000008152600401610aed9061329a565b60405180910390fd5b610b0083836117c2565b505050565b600d5481565b6000600880549050905090565b600f5481565b610b2f610b296117ba565b8261187b565b610b6e576040517f08c379a0000000000000000000000000000000000000000000000000000000008152600401610b659061332c565b60405180910390fd5b610b79838383611910565b505050565b6000610b898361113d565b8210610bca576040517f08c379a0000000000000000000000000000000000000000000000000000000008152600401610bc1906133be565b60405180910390fd5b600660008473ffffffffffffffffffffffffffffffffffffffff1673ffffffffffffffffffffffffffffffffffffffff168152602001908152602001600020600083815260200190815260200160002054905092915050565b610c2b6116f1565b6000601160008373ffffffffffffffffffffffffffffffffffffffff1673ffffffffffffffffffffffffffffffffffffffff16815260200190815260200160002060006101000a81548160ff02191690831515021790555050565b610c8e6116f1565b3373ffffffffffffffffffffffffffffffffffffffff166108fc479081150290604051600060405180830381858888f19350505050610ccc57600080fd5b565b6000610cd8610b0b565b9050601060009054906101000a900460ff1615610cf457600080fd5b60008211610d0157600080fd5b600f54821115610d1057600080fd5b600e548282610d1f919061340d565b1115610d2a57600080fd5b610d3261121b565b73ffffffffffffffffffffffffffffffffffffffff163373ffffffffffffffffffffffffffffffffffffffff1614610dd85760011515601160003373ffffffffffffffffffffffffffffffffffffffff1673ffffffffffffffffffffffffffffffffffffffff16815260200190815260200160002060009054906101000a900460ff16151514610dd75781600d54610dca9190613463565b341015610dd657600080fd5b5b5b6000600190505b828111610e0e57610dfb848284610df6919061340d565b611b77565b8080610e06906134bd565b915050610ddf565b50505050565b610e2f838383604051806020016040528060008152506112ed565b505050565b60606000610e418361113d565b905060008167ffffffffffffffff811115610e5f57610e5e612e1d565b5b604051908082528060200260200182016040528015610e8d5781602001602082028036833780820191505090505b50905060005b82811015610ed757610ea58582610b7e565b828281518110610eb857610eb7613506565b5b6020026020010181815250508080610ecf906134bd565b915050610e93565b508092505050919050565b610eea6116f1565b80600d8190555050565b610efc6116f1565b6001601160008373ffffffffffffffffffffffffffffffffffffffff1673ffffffffffffffffffffffffffffffffffffffff16815260200190815260200160002060006101000a81548160ff02191690831515021790555050565b6000610f61610b0b565b8210610fa2576040517f08c379a0000000000000000000000000000000000000000000000000000000008152600401610f99906135a7565b60405180910390fd5b60088281548110610fb657610fb5613506565b5b90600052602060002001549050919050565b610fd06116f1565b80600b9080519060200190610fe69291906128d8565b5050565b601060009054906101000a900460ff1681565b6000806002600084815260200190815260200160002060009054906101000a900473ffffffffffffffffffffffffffffffffffffffff169050600073ffffffffffffffffffffffffffffffffffffffff168173ffffffffffffffffffffffffffffffffffffffff1614156110a6576040517f08c379a000000000000000000000000000000000000000000000000000000000815260040161109d90613613565b60405180910390fd5b80915050919050565b600b80546110bc90613164565b80601f01602080910402602001604051908101604052809291908181526020018280546110e890613164565b80156111355780601f1061110a57610100808354040283529160200191611135565b820191906000526020600020905b81548152906001019060200180831161111857829003601f168201915b505050505081565b60008073ffffffffffffffffffffffffffffffffffffffff168273ffffffffffffffffffffffffffffffffffffffff1614156111ae576040517f08c379a00000000000000000000000000000000000000000000000000000000081526004016111a5906136a5565b60405180910390fd5b600360008373ffffffffffffffffffffffffffffffffffffffff1673ffffffffffffffffffffffffffffffffffffffff168152602001908152602001600020549050919050565b6111fd6116f1565b6112076000611b95565b565b6112116116f1565b80600f8190555050565b6000600a60009054906101000a900473ffffffffffffffffffffffffffffffffffffffff16905090565b60606001805461125490613164565b80601f016020809104026020016040519081016040528092919081815260200182805461128090613164565b80156112cd5780601f106112a2576101008083540402835291602001916112cd565b820191906000526020600020905b8154815290600101906020018083116112b057829003601f168201915b5050505050905090565b6112e96112e26117ba565b8383611c5b565b5050565b6112fe6112f86117ba565b8361187b565b61133d576040517f08c379a00000000000000000000000000000000000000000000000000000000081526004016113349061332c565b60405180910390fd5b61134984848484611dc8565b50505050565b600c805461135c90613164565b80601f016020809104026020016040519081016040528092919081815260200182805461138890613164565b80156113d55780601f106113aa576101008083540402835291602001916113d5565b820191906000526020600020905b8154815290600101906020018083116113b857829003601f168201915b505050505081565b60606113e882611e24565b611427576040517f08c379a000000000000000000000000000000000000000000000000000000000815260040161141e90613737565b60405180910390fd5b6000611431611e90565b90506000815111611451576040518060200160405280600081525061147f565b8061145b84611f22565b600c60405160200161146f93929190613827565b6040516020818303038152906040525b915050919050565b600e5481565b60116020528060005260406000206000915054906101000a900460ff1681565b6114b56116f1565b80600c90805190602001906114cb9291906128d8565b5050565b6000600560008473ffffffffffffffffffffffffffffffffffffffff1673ffffffffffffffffffffffffffffffffffffffff16815260200190815260200160002060008373ffffffffffffffffffffffffffffffffffffffff1673ffffffffffffffffffffffffffffffffffffffff16815260200190815260200160002060009054906101000a900460ff16905092915050565b61156b6116f1565b600073ffffffffffffffffffffffffffffffffffffffff168173ffffffffffffffffffffffffffffffffffffffff1614156115db576040517f08c379a00000000000000000000000000000000000000000000000000000000081526004016115d2906138ca565b60405180910390fd5b6115e481611b95565b50565b6000808273ffffffffffffffffffffffffffffffffffffffff163b119050919050565b505050565b60007f80ac58cd000000000000000000000000000000000000000000000000000000007bffffffffffffffffffffffffffffffffffffffffffffffffffffffff1916827bffffffffffffffffffffffffffffffffffffffffffffffffffffffff191614806116da57507f5b5e139f000000000000000000000000000000000000000000000000000000007bffffffffffffffffffffffffffffffffffffffffffffffffffffffff1916827bffffffffffffffffffffffffffffffffffffffffffffffffffffffff1916145b806116ea57506116e982612083565b5b9050919050565b6116f96117ba565b73ffffffffffffffffffffffffffffffffffffffff1661171761121b565b73ffffffffffffffffffffffffffffffffffffffff161461176d576040517f08c379a000000000000000000000000000000000000000000000000000000000815260040161176490613936565b60405180910390fd5b565b61177881611e24565b6117b7576040517f08c379a00000000000000000000000000000000000000000000000000000000081526004016117ae90613613565b60405180910390fd5b50565b600033905090565b816004600083815260200190815260200160002060006101000a81548173ffffffffffffffffffffffffffffffffffffffff021916908373ffffffffffffffffffffffffffffffffffffffff160217905550808273ffffffffffffffffffffffffffffffffffffffff1661183583610ffd565b73ffffffffffffffffffffffffffffffffffffffff167f8c5be1e5ebec7d5bd14f71427d1e84f3dd0314c0f7b2291e5b200ac8c7c3b92560405160405180910390a45050565b60008061188783610ffd565b90508073ffffffffffffffffffffffffffffffffffffffff168473ffffffffffffffffffffffffffffffffffffffff1614806118c957506118c881856114cf565b5b8061190757508373ffffffffffffffffffffffffffffffffffffffff166118ef846109a7565b73ffffffffffffffffffffffffffffffffffffffff16145b91505092915050565b8273ffffffffffffffffffffffffffffffffffffffff1661193082610ffd565b73ffffffffffffffffffffffffffffffffffffffff1614611986576040517f08c379a000000000000000000000000000000000000000000000000000000000815260040161197d906139c8565b60405180910390fd5b600073ffffffffffffffffffffffffffffffffffffffff168273ffffffffffffffffffffffffffffffffffffffff1614156119f6576040517f08c379a00000000000000000000000000000000000000000000000000000000081526004016119ed90613a5a565b60405180910390fd5b611a018383836120ed565b611a0c6000826117c2565b6001600360008573ffffffffffffffffffffffffffffffffffffffff1673ffffffffffffffffffffffffffffffffffffffff1681526020019081526020016000206000828254611a5c9190613a7a565b925050819055506001600360008473ffffffffffffffffffffffffffffffffffffffff1673ffffffffffffffffffffffffffffffffffffffff1681526020019081526020016000206000828254611ab3919061340d565b92505081905550816002600083815260200190815260200160002060006101000a81548173ffffffffffffffffffffffffffffffffffffffff021916908373ffffffffffffffffffffffffffffffffffffffff160217905550808273ffffffffffffffffffffffffffffffffffffffff168473ffffffffffffffffffffffffffffffffffffffff167fddf252ad1be2c89b69c2b068fc378daa952ba7f163c4a11628f55a4df523b3ef60405160405180910390a4611b72838383612201565b505050565b611b91828260405180602001604052806000815250612206565b5050565b6000600a60009054906101000a900473ffffffffffffffffffffffffffffffffffffffff16905081600a60006101000a81548173ffffffffffffffffffffffffffffffffffffffff021916908373ffffffffffffffffffffffffffffffffffffffff1602179055508173ffffffffffffffffffffffffffffffffffffffff168173ffffffffffffffffffffffffffffffffffffffff167f8be0079c531659141344cd1fd0a4f28419497f9722a3daafe3b4186f6b6457e060405160405180910390a35050565b8173ffffffffffffffffffffffffffffffffffffffff168373ffffffffffffffffffffffffffffffffffffffff161415611cca576040517f08c379a0000000000000000000000000000000000000000000000000000000008152600401611cc190613afa565b60405180910390fd5b80600560008573ffffffffffffffffffffffffffffffffffffffff1673ffffffffffffffffffffffffffffffffffffffff16815260200190815260200160002060008473ffffffffffffffffffffffffffffffffffffffff1673ffffffffffffffffffffffffffffffffffffffff16815260200190815260200160002060006101000a81548160ff0219169083151502179055508173ffffffffffffffffffffffffffffffffffffffff168373ffffffffffffffffffffffffffffffffffffffff167f17307eab39ab6107e8899845ad3d59bd9653f200f220920489ca2b5937696c3183604051611dbb9190612a2f565b60405180910390a3505050565b611dd3848484611910565b611ddf84848484612261565b611e1e576040517f08c379a0000000000000000000000000000000000000000000000000000000008152600401611e1590613b8c565b60405180910390fd5b50505050565b60008073ffffffffffffffffffffffffffffffffffffffff166002600084815260200190815260200160002060009054906101000a900473ffffffffffffffffffffffffffffffffffffffff1673ffffffffffffffffffffffffffffffffffffffff1614159050919050565b6060600b8054611e9f90613164565b80601f0160208091040260200160405190810160405280929190818152602001828054611ecb90613164565b8015611f185780601f10611eed57610100808354040283529160200191611f18565b820191906000526020600020905b815481529060010190602001808311611efb57829003601f168201915b5050505050905090565b60606000821415611f6a576040518060400160405280600181526020017f3000000000000000000000000000000000000000000000000000000000000000815250905061207e565b600082905060005b60008214611f9c578080611f85906134bd565b915050600a82611f959190613bdb565b9150611f72565b60008167ffffffffffffffff811115611fb857611fb7612e1d565b5b6040519080825280601f01601f191660200182016040528015611fea5781602001600182028036833780820191505090505b5090505b60008514612077576001826120039190613a7a565b9150600a856120129190613c0c565b603061201e919061340d565b60f81b81838151811061203457612033613506565b5b60200101907effffffffffffffffffffffffffffffffffffffffffffffffffffffffffffff1916908160001a905350600a856120709190613bdb565b9450611fee565b8093505050505b919050565b60007f01ffc9a7000000000000000000000000000000000000000000000000000000007bffffffffffffffffffffffffffffffffffffffffffffffffffffffff1916827bffffffffffffffffffffffffffffffffffffffffffffffffffffffff1916149050919050565b6120f883838361160a565b600073ffffffffffffffffffffffffffffffffffffffff168373ffffffffffffffffffffffffffffffffffffffff16141561213b57612136816123f8565b61217a565b8173ffffffffffffffffffffffffffffffffffffffff168373ffffffffffffffffffffffffffffffffffffffff1614612179576121788382612441565b5b5b600073ffffffffffffffffffffffffffffffffffffffff168273ffffffffffffffffffffffffffffffffffffffff1614156121bd576121b8816125ae565b6121fc565b8273ffffffffffffffffffffffffffffffffffffffff168273ffffffffffffffffffffffffffffffffffffffff16146121fb576121fa828261267f565b5b5b505050565b505050565b61221083836126fe565b61221d6000848484612261565b61225c576040517f08c379a000000000000000000000000000000000000000000000000000000000815260040161225390613b8c565b60405180910390fd5b505050565b60006122828473ffffffffffffffffffffffffffffffffffffffff166115e7565b156123eb578373ffffffffffffffffffffffffffffffffffffffff1663150b7a026122ab6117ba565b8786866040518563ffffffff1660e01b81526004016122cd9493929190613c92565b602060405180830381600087803b1580156122e757600080fd5b505af192505050801561231857506040513d601f19601f820116820180604052508101906123159190613cf3565b60015b61239b573d8060008114612348576040519150601f19603f3d011682016040523d82523d6000602084013e61234d565b606091505b50600081511415612393576040517f08c379a000000000000000000000000000000000000000000000000000000000815260040161238a90613b8c565b60405180910390fd5b805181602001fd5b63150b7a0260e01b7bffffffffffffffffffffffffffffffffffffffffffffffffffffffff1916817bffffffffffffffffffffffffffffffffffffffffffffffffffffffff1916149150506123f0565b600190505b949350505050565b6008805490506009600083815260200190815260200160002081905550600881908060018154018082558091505060019003906000526020600020016000909190919091505550565b6000600161244e8461113d565b6124589190613a7a565b905060006007600084815260200190815260200160002054905081811461253d576000600660008673ffffffffffffffffffffffffffffffffffffffff1673ffffffffffffffffffffffffffffffffffffffff168152602001908152602001600020600084815260200190815260200160002054905080600660008773ffffffffffffffffffffffffffffffffffffffff1673ffffffffffffffffffffffffffffffffffffffff168152602001908152602001600020600084815260200190815260200160002081905550816007600083815260200190815260200160002081905550505b6007600084815260200190815260200160002060009055600660008573ffffffffffffffffffffffffffffffffffffffff1673ffffffffffffffffffffffffffffffffffffffff16815260200190815260200160002060008381526020019081526020016000206000905550505050565b600060016008805490506125c29190613a7a565b90506000600960008481526020019081526020016000205490506000600883815481106125f2576125f1613506565b5b90600052602060002001549050806008838154811061261457612613613506565b5b90600052602060002001819055508160096000838152602001908152602001600020819055506009600085815260200190815260200160002060009055600880548061266357612662613d20565b5b6001900381819060005260206000200160009055905550505050565b600061268a8361113d565b905081600660008573ffffffffffffffffffffffffffffffffffffffff1673ffffffffffffffffffffffffffffffffffffffff168152602001908152602001600020600083815260200190815260200160002081905550806007600084815260200190815260200160002081905550505050565b600073ffffffffffffffffffffffffffffffffffffffff168273ffffffffffffffffffffffffffffffffffffffff16141561276e576040517f08c379a000000000000000000000000000000000000000000000000000000000815260040161276590613d9b565b60405180910390fd5b61277781611e24565b156127b7576040517f08c379a00000000000000000000000000000000000000000000000000000000081526004016127ae90613e07565b60405180910390fd5b6127c3600083836120ed565b6001600360008473ffffffffffffffffffffffffffffffffffffffff1673ffffffffffffffffffffffffffffffffffffffff1681526020019081526020016000206000828254612813919061340d565b92505081905550816002600083815260200190815260200160002060006101000a81548173ffffffffffffffffffffffffffffffffffffffff021916908373ffffffffffffffffffffffffffffffffffffffff160217905550808273ffffffffffffffffffffffffffffffffffffffff16600073ffffffffffffffffffffffffffffffffffffffff167fddf252ad1be2c89b69c2b068fc378daa952ba7f163c4a11628f55a4df523b3ef60405160405180910390a46128d460008383612201565b5050565b8280546128e490613164565b90600052602060002090601f016020900481019282612906576000855561294d565b82601f1061291f57805160ff191683800117855561294d565b8280016001018555821561294d579182015b8281111561294c578251825591602001919060010190612931565b5b50905061295a919061295e565b5090565b5b8082111561297757600081600090555060010161295f565b5090565b6000604051905090565b600080fd5b600080fd5b60007fffffffff0000000000000000000000000000000000000000000000000000000082169050919050565b6129c48161298f565b81146129cf57600080fd5b50565b6000813590506129e1816129bb565b92915050565b6000602082840312156129fd576129fc612985565b5b6000612a0b848285016129d2565b91505092915050565b60008115159050919050565b612a2981612a14565b82525050565b6000602082019050612a446000830184612a20565b92915050565b612a5381612a14565b8114612a5e57600080fd5b50565b600081359050612a7081612a4a565b92915050565b600060208284031215612a8c57612a8b612985565b5b6000612a9a84828501612a61565b91505092915050565b600081519050919050565b600082825260208201905092915050565b60005b83811015612add578082015181840152602081019050612ac2565b83811115612aec576000848401525b50505050565b6000601f19601f8301169050919050565b6000612b0e82612aa3565b612b188185612aae565b9350612b28818560208601612abf565b612b3181612af2565b840191505092915050565b60006020820190508181036000830152612b568184612b03565b905092915050565b6000819050919050565b612b7181612b5e565b8114612b7c57600080fd5b50565b600081359050612b8e81612b68565b92915050565b600060208284031215612baa57612ba9612985565b5b6000612bb884828501612b7f565b91505092915050565b600073ffffffffffffffffffffffffffffffffffffffff82169050919050565b6000612bec82612bc1565b9050919050565b612bfc81612be1565b82525050565b6000602082019050612c176000830184612bf3565b92915050565b612c2681612be1565b8114612c3157600080fd5b50565b600081359050612c4381612c1d565b92915050565b60008060408385031215612c6057612c5f612985565b5b6000612c6e85828601612c34565b9250506020612c7f85828601612b7f565b9150509250929050565b612c9281612b5e565b82525050565b6000602082019050612cad6000830184612c89565b92915050565b600080600060608486031215612ccc57612ccb612985565b5b6000612cda86828701612c34565b9350506020612ceb86828701612c34565b9250506040612cfc86828701612b7f565b9150509250925092565b600060208284031215612d1c57612d1b612985565b5b6000612d2a84828501612c34565b91505092915050565b600081519050919050565b600082825260208201905092915050565b6000819050602082019050919050565b612d6881612b5e565b82525050565b6000612d7a8383612d5f565b60208301905092915050565b6000602082019050919050565b6000612d9e82612d33565b612da88185612d3e565b9350612db383612d4f565b8060005b83811015612de4578151612dcb8882612d6e565b9750612dd683612d86565b925050600181019050612db7565b5085935050505092915050565b60006020820190508181036000830152612e0b8184612d93565b905092915050565b600080fd5b600080fd5b7f4e487b7100000000000000000000000000000000000000000000000000000000600052604160045260246000fd5b612e5582612af2565b810181811067ffffffffffffffff82111715612e7457612e73612e1d565b5b80604052505050565b6000612e8761297b565b9050612e938282612e4c565b919050565b600067ffffffffffffffff821115612eb357612eb2612e1d565b5b612ebc82612af2565b9050602081019050919050565b82818337600083830152505050565b6000612eeb612ee684612e98565b612e7d565b905082815260208101848484011115612f0757612f06612e18565b5b612f12848285612ec9565b509392505050565b600082601f830112612f2f57612f2e612e13565b5b8135612f3f848260208601612ed8565b91505092915050565b600060208284031215612f5e57612f5d612985565b5b600082013567ffffffffffffffff811115612f7c57612f7b61298a565b5b612f8884828501612f1a565b91505092915050565b60008060408385031215612fa857612fa7612985565b5b6000612fb685828601612c34565b9250506020612fc785828601612a61565b9150509250929050565b600067ffffffffffffffff821115612fec57612feb612e1d565b5b612ff582612af2565b9050602081019050919050565b600061301561301084612fd1565b612e7d565b90508281526020810184848401111561303157613030612e18565b5b61303c848285612ec9565b509392505050565b600082601f83011261305957613058612e13565b5b8135613069848260208601613002565b91505092915050565b6000806000806080858703121561308c5761308b612985565b5b600061309a87828801612c34565b94505060206130ab87828801612c34565b93505060406130bc87828801612b7f565b925050606085013567ffffffffffffffff8111156130dd576130dc61298a565b5b6130e987828801613044565b91505092959194509250565b6000806040838503121561310c5761310b612985565b5b600061311a85828601612c34565b925050602061312b85828601612c34565b9150509250929050565b7f4e487b7100000000000000000000000000000000000000000000000000000000600052602260045260246000fd5b6000600282049050600182168061317c57607f821691505b602082108114156131905761318f613135565b5b50919050565b7f4552433732313a20617070726f76616c20746f2063757272656e74206f776e6560008201527f7200000000000000000000000000000000000000000000000000000000000000602082015250565b60006131f2602183612aae565b91506131fd82613196565b604082019050919050565b60006020820190508181036000830152613221816131e5565b9050919050565b7f4552433732313a20617070726f76652063616c6c6572206973206e6f7420746f60008201527f6b656e206f776e6572206e6f7220617070726f76656420666f7220616c6c0000602082015250565b6000613284603e83612aae565b915061328f82613228565b604082019050919050565b600060208201905081810360008301526132b381613277565b9050919050565b7f4552433732313a2063616c6c6572206973206e6f7420746f6b656e206f776e6560008201527f72206e6f7220617070726f766564000000000000000000000000000000000000602082015250565b6000613316602e83612aae565b9150613321826132ba565b604082019050919050565b6000602082019050818103600083015261334581613309565b9050919050565b7f455243373231456e756d657261626c653a206f776e657220696e646578206f7560008201527f74206f6620626f756e6473000000000000000000000000000000000000000000602082015250565b60006133a8602b83612aae565b91506133b38261334c565b604082019050919050565b600060208201905081810360008301526133d78161339b565b9050919050565b7f4e487b7100000000000000000000000000000000000000000000000000000000600052601160045260246000fd5b600061341882612b5e565b915061342383612b5e565b9250827fffffffffffffffffffffffffffffffffffffffffffffffffffffffffffffffff03821115613458576134576133de565b5b828201905092915050565b600061346e82612b5e565b915061347983612b5e565b9250817fffffffffffffffffffffffffffffffffffffffffffffffffffffffffffffffff04831182151516156134b2576134b16133de565b5b828202905092915050565b60006134c882612b5e565b91507fffffffffffffffffffffffffffffffffffffffffffffffffffffffffffffffff8214156134fb576134fa6133de565b5b600182019050919050565b7f4e487b7100000000000000000000000000000000000000000000000000000000600052603260045260246000fd5b7f455243373231456e756d657261626c653a20676c6f62616c20696e646578206f60008201527f7574206f6620626f756e64730000000000000000000000000000000000000000602082015250565b6000613591602c83612aae565b915061359c82613535565b604082019050919050565b600060208201905081810360008301526135c081613584565b9050919050565b7f4552433732313a20696e76616c696420746f6b656e2049440000000000000000600082015250565b60006135fd601883612aae565b9150613608826135c7565b602082019050919050565b6000602082019050818103600083015261362c816135f0565b9050919050565b7f4552433732313a2061646472657373207a65726f206973206e6f74206120766160008201527f6c6964206f776e65720000000000000000000000000000000000000000000000602082015250565b600061368f602983612aae565b915061369a82613633565b604082019050919050565b600060208201905081810360008301526136be81613682565b9050919050565b7f4552433732314d657461646174613a2055524920717565727920666f72206e6f60008201527f6e6578697374656e7420746f6b656e0000000000000000000000000000000000602082015250565b6000613721602f83612aae565b915061372c826136c5565b604082019050919050565b6000602082019050818103600083015261375081613714565b9050919050565b600081905092915050565b600061376d82612aa3565b6137778185613757565b9350613787818560208601612abf565b80840191505092915050565b60008190508160005260206000209050919050565b600081546137b581613164565b6137bf8186613757565b945060018216600081146137da57600181146137eb5761381e565b60ff1983168652818601935061381e565b6137f485613793565b60005b83811015613816578154818901526001820191506020810190506137f7565b838801955050505b50505092915050565b60006138338286613762565b915061383f8285613762565b915061384b82846137a8565b9150819050949350505050565b7f4f776e61626c653a206e6577206f776e657220697320746865207a65726f206160008201527f6464726573730000000000000000000000000000000000000000000000000000602082015250565b60006138b4602683612aae565b91506138bf82613858565b604082019050919050565b600060208201905081810360008301526138e3816138a7565b9050919050565b7f4f776e61626c653a2063616c6c6572206973206e6f7420746865206f776e6572600082015250565b6000613920602083612aae565b915061392b826138ea565b602082019050919050565b6000602082019050818103600083015261394f81613913565b9050919050565b7f4552433732313a207472616e736665722066726f6d20696e636f72726563742060008201527f6f776e6572000000000000000000000000000000000000000000000000000000602082015250565b60006139b2602583612aae565b91506139bd82613956565b604082019050919050565b600060208201905081810360008301526139e1816139a5565b9050919050565b7f4552433732313a207472616e7366657220746f20746865207a65726f2061646460008201527f7265737300000000000000000000000000000000000000000000000000000000602082015250565b6000613a44602483612aae565b9150613a4f826139e8565b604082019050919050565b60006020820190508181036000830152613a7381613a37565b9050919050565b6000613a8582612b5e565b9150613a9083612b5e565b925082821015613aa357613aa26133de565b5b828203905092915050565b7f4552433732313a20617070726f766520746f2063616c6c657200000000000000600082015250565b6000613ae4601983612aae565b9150613aef82613aae565b602082019050919050565b60006020820190508181036000830152613b1381613ad7565b9050919050565b7f4552433732313a207472616e7366657220746f206e6f6e20455243373231526560008201527f63656976657220696d706c656d656e7465720000000000000000000000000000602082015250565b6000613b76603283612aae565b9150613b8182613b1a565b604082019050919050565b60006020820190508181036000830152613ba581613b69565b9050919050565b7f4e487b7100000000000000000000000000000000000000000000000000000000600052601260045260246000fd5b6000613be682612b5e565b9150613bf183612b5e565b925082613c0157613c00613bac565b5b828204905092915050565b6000613c1782612b5e565b9150613c2283612b5e565b925082613c3257613c31613bac565b5b828206905092915050565b600081519050919050565b600082825260208201905092915050565b6000613c6482613c3d565b613c6e8185613c48565b9350613c7e818560208601612abf565b613c8781612af2565b840191505092915050565b6000608082019050613ca76000830187612bf3565b613cb46020830186612bf3565b613cc16040830185612c89565b8181036060830152613cd38184613c59565b905095945050505050565b600081519050613ced816129bb565b92915050565b600060208284031215613d0957613d08612985565b5b6000613d1784828501613cde565b91505092915050565b7f4e487b7100000000000000000000000000000000000000000000000000000000600052603160045260246000fd5b7f4552433732313a206d696e7420746f20746865207a65726f2061646472657373600082015250565b6000613d85602083612aae565b9150613d9082613d4f565b602082019050919050565b60006020820190508181036000830152613db481613d78565b9050919050565b7f4552433732313a20746f6b656e20616c7265616479206d696e74656400000000600082015250565b6000613df1601c83612aae565b9150613dfc82613dbb565b602082019050919050565b60006020820190508181036000830152613e2081613de4565b905091905056fea2646970667358221220cc34eb0815066ac5a8974ae304c765f99ff97e85574bc8a11c94a9016220485a64736f6c63430008090033",
  "linkReferences": {},
  "deployedLinkReferences": {}
}